:020000040800F2
:10400000E01E002069420008E9CC00081DBF00083E
:104010004DCB00081D6A00082DD6000800000000E6
:10402000000000000000000000000000A9CD000812
:10403000C56B000800000000EDCC0008ABCD000807
:10404000834200088342000883420008834200083C
:10405000834200088342000883420008834200082C
:10406000834200088342000883420008834200081C
:10407000834200088342000883420008834200080C
:104080008342000883420008096700088342000851
:10409000196B00088342000883420008834200082D
:1040A0008342000859CE000883420008834200087A
:1040B00083420008834200088342000883420008CC
:1040C00083420008834200088342000883420008BC
:1040D000834200080DD60008834200081DD6000860
:1040E0008342000883420008834200080000000069
:1040F00000000000000000000000000000000000C0
:104100000000000000000000834200088342000815
:1041100099CF0008834200088342000883420008C8
:104120008342000883420008896B0008834200082C
:10413000834200088342000883420008834200084B
:10414000296B00088342000883420008834200086C
:1041500000F002F800F079F80AA090E8000C824420
:104160008344AAF10107DA4501D100F06EF8AFF2FD
:10417000090EBAE80F0013F0010F18BFFB1A43F045
:1041800001031847F8BB000018BC00000A444FF0B8
:10419000000C10F8013B13F0070408BF10F8014BA6
:1041A0001D1108BF10F8015B641E05D010F8016BEB
:1041B000641E01F8016BF9D113F0080F1EBF10F84F
:1041C000014BAD1C0C1B09D16D1E58BF01F801CB72
:1041D000FAD505E014F8016B01F8016B6D1EF9D5F5
:1041E0009142D6D37047000000230024002500260A
:1041F000103A28BF78C1FBD8520728BF30C148BF4A
:104200000B60704766290BF0B684642900F0588172
:10421000752900F05581782900F08E81732900F00E
:10422000F286002070471FB500F0AAFF04000020AE
:1042300000210AF01BFE401C6060002000210AF0F3
:10424000FFFDE0601FBD10B510BD01F02BF9114658
:10425000FFF7E9FF0AF0FFF801F0D4FB03B4FFF722
:10426000F2FF03BC01F0D8FB09488047094800472A
:10427000FEE7FEE7FEE7FEE7FEE7FEE7FEE7FEE716
:10428000FEE7FEE704480549054A064B7047000073
:1042900049CE000851410008E0180020E01E00202F
:1042A000E01A0020E01A002053EA020C00F06980B6
:1042B0002DE9F04B4FF00006002B1FBFB3FA83F53A
:1042C00003FA05F424FA05F65E4012BF1643B2FA6B
:1042D00082F502FA05F4C5F120051EBF22FA05FC9D
:1042E00044EA0C04203556EA044C4FEA144418BF43
:1042F000641C4FF000084FF00009904271EB030C72
:1043000039D3002919BFB1FA81F701FA07F6B0FADB
:1043100080F700FA07F6C7F120071EBF20FA07FC56
:1043200046EA0C062037B6FBF4FCA7EB0507103F66
:1043300007F01F0BCBF120060CFA0BFB2CFA06F64C
:1043400044BFB3460026202FA4BF5E464FF0000BAB
:104350005BEA060C08BF4FF0010B19EB0B09ABFB36
:10436000027C48EB0608C01B06FB02CC0BFB03CC0F
:1043700071EB0C01C1E70B46024641464846BDE8D9
:10438000F08B13B54FF000004FF00001AFF3008049
:10439000BDE81C407047B2F120030AD5C2F12003EA
:1043A00020FA02F001FA03F321FA02F140EA0300D5
:1043B000704721FA03F04FF0000170470FB41CB5AD
:1043C000084B06AA7B4469460090059800F0E9FD79
:1043D00004460020694600F0F7FD20461CBC5DF84D
:1043E00014FB0000010C00000FB47CB50C0009AAFE
:1043F000009001D02044401E084B7B446946019048
:10440000089800F0CEFD05461CB10020694600F07A
:10441000DBFD28467CBC5DF814FB0000D50B0000DA
:1044200070B5044685690068C10601D5302600E0F4
:104430002026C00707D070BDD4E90121304690473F
:10444000206A401C20626D1EF6D570BD70B5044612
:1044500085690078C00707D170BDD4E9012120200B
:104460009047206A401C20626D1EF6D570BD70B565
:104470000C460546012A05D02878800600D5EA6951
:10448000002302E0012305E05B1C934202D2E05CC2
:104490000028F9D1A869E618C01AA861286A18444A
:1044A00028622846FFF7BCFF04E0D5E9012114F893
:1044B000010B9047B442F8D32846FFF7C7FF70BD01
:1044C0002DE9F0410646002410687529314616A5ED
:1044D00010D0AFF30080002802DA404213A507E0B5
:1044E00031688A0701D512A502E0490704D511A554
:1044F000012401E0AFF3008000210A2206F1240725
:1045000009E0B0FBF2FCB0FBF2F302FB1C00303020
:1045100078541846491C0028F3D123462A463046D1
:10452000BDE8F04100F0CFBA000000002D0000000F
:104530002B0000002000000070B504460D46214607
:104540001068AFF300802188090502D50F4A7A442C
:1045500002E00E4A7A440E32002104F1240305E001
:1045600000F00F060009965D5E54491C0028F7D143
:1045700020780023000704D5702D02D009B1022352
:1045800011322046BDE8704000F09DBA5AB70000D5
:104590002DE9F05F894604464FF0000ADFF874B158
:1045A000FB44C0F820A02046E1688847002874D06A
:1045B000252806D0D4E901219047206A401C2062BA
:1045C000F1E700265F462046E16888472028054637
:1045D00007DB312D05D2781910F8200C08B10643FD
:1045E000F1E7B00701D526F00406C4F81CA00027A7
:1045F000C4F818A02A2D09D0284609F0CAF838B303
:1046000004EB8708303DC8F8185019E059F8041B2E
:10461000204604EB87029161E1688847012F054637
:1046200018D1E069002820DA26F020061DE0D8F82D
:10463000180000EB800005EB40003038C8F8180087
:104640002046E1688847054609F0A3F80028EED126
:10465000012F0AD02E2D08D12046E16888477F1C03
:104660000546022F46F02006C4DBA069002803DAC5
:10467000404246F00106A061F00701D026F0100686
:104680006C2D0BD0682D09D04C2D39D06A2D35D02A
:10469000742D35D07A2D33D016E038E0E1682F46FE
:1046A00020468847B842054609D16C2F26D04FF4E2
:1046B0008060E168064320468847054604E06C2F89
:1046C0001AD04FF4807006430DB3A5F141001928AC
:1046D00002D8203546F400664A4629462046266020
:1046E0004E46FFF78FFD80B101280BD0F61D26F056
:1046F000070000F1080956E74020E4E78020D8E7EA
:104700000020D6E706F104094DE7284652E7206A63
:10471000BDE8F09F30B7000070B5064600F0C4F960
:104720000468054630460A22002100F0C3FC2C60D4
:1047300070BD0000014A00F0F5BC0000D801002067
:1047400030B505460B462A4613F8014B12F8010B0B
:1047500008B1A042F8D01CB1002802D06D1CF1E7CE
:10476000284630BD10B5431C02E010F8011B71B1A2
:104770008107FAD14FF0013202C88C1A8C4314EA37
:10478000C211F9D0C01A0A0603D0C01E10BDC01A4B
:1047900010BD0A0401D0801E10BD0902FCD0401ECD
:1047A00010BD40EA010370B59B072ED14FF00136D2
:1047B000042A2AD308C810C99D1B9D43121F15EA5D
:1047C000C61517D0D8B2E1B2401A50EA056110D12F
:1047D00098B2A1B2401A50EA05410AD123F07F40B5
:1047E00024F07F41401A50EA052102D1180EA0EBB7
:1047F000146070BDA342DBD018BA21BA884201D937
:10480000012070BD4FF0FF3070BD0AB9002070BDAF
:1048100010F8013B11F8014B63B1A3420AD1521EBB
:1048200008D010F8013B11F8014B1BB1A34201D194
:10483000521EEDD1181B70BD032A40F2308010F0DB
:10484000030C00F0158011F8013BBCF1020F62442B
:1048500098BF11F801CB00F8013B38BF11F8013BBC
:10486000A2F1040298BF00F801CB38BF00F8013B69
:1048700011F0030300F02580083AC0F0088051F8D9
:10488000043B083A51F804CBA0E80810F5E7121DE4
:104890005CBF51F8043B40F8043BAFF30080D20703
:1048A00024BF11F8013B11F801CB48BF11F8012BCF
:1048B00024BF00F8013B00F801CB48BF00F8012BF2
:1048C000704710B5203AC0F00B80B1E81850203A7C
:1048D000A0E81850B1E81850A0E81850BFF4F5AFA0
:1048E0005FEA027C24BFB1E81850A0E8185044BF2A
:1048F00018C918C0BDE810405FEA827C24BF51F897
:10490000043B40F8043B08BF7047D20728BF31F88A
:10491000023B48BF11F8012B28BF20F8023B48BFDB
:1049200000F8012B704702F0FF0343EA032242EA3A
:10493000024200F002B84FF000020429C0F01280D9
:1049400010F0030C00F01B80CCF1040CBCF1020F42
:1049500018BF00F8012BA8BF20F8022BA1EB0C0117
:1049600000F00DB85FEAC17C24BF00F8012B00F80D
:10497000012B48BF00F8012B70474FF0000200B533
:10498000134694469646203922BFA0E80C50A0E872
:104990000C50B1F12001BFF4F7AF090728BFA0E820
:1049A0000C5048BF0CC05DF804EB890028BF40F8EC
:1049B000042B08BF704748BF20F8022B11F0804F2E
:1049C00018BF00F8012B704710B5044610F0030F14
:1049D00008BF11F0030F40F015804FF0013E121F89
:1049E000C0F20E8051F8043BA3EB0E0C2CEA030C32
:1049F0001CEACE1C08BF40F8043BF0D0A1F1040132
:104A000002F10402521E08DB11F8013B002B00F8F2
:104A1000013BF7D11146FFF78EFF204610BD000085
:104A20004FF0013C50F8042B51F8043B9A4221D13D
:104A3000A2EB0C03934313EACC1317D150F8042BC9
:104A400051F8043B9A4215D1A2EB0C03934313EAAD
:104A5000CC130BD150F8042B51F8043B9A4209D1E6
:104A6000A2EB0C03934313EACC13DBD04FF000000E
:104A7000704700BFD01A01BAB1FA81F101F01801F4
:104A800022FA01F0CB40C1F12001DBB2C0B2C01A62
:104A90002CFA01F3D11A914311EAC311E6D1704700
:104AA0007047704770470000004870477C1800202E
:104AB00010B5FFF7F9FF006810BD10B50446FFF709
:104AC000F3FF046010BD2DE9F0470D46994692466C
:104AD000044600F124080168880604D5E06921F045
:104AE0001001216000E00120A84201DD471B00E029
:104AF0000027A1697A1902EB0900081AA061207841
:104B0000C00602D42046FFF78BFC002608E0D4E95B
:104B100001211AF806009047206A401C761C20628A
:104B20004E45F4DB2078C0060AD52046FFF778FC16
:104B300006E0D4E9012130209047206A401C206221
:104B4000381EA7F10107F4DC07E0D4E9012118F8C9
:104B500005009047206A401C2062281EA5F101052F
:104B6000F3DC2046FFF772FC2078000602D5022015
:104B7000BDE8F0870120FBE770472DE9FF4F0C46A9
:104B80001E464FF0FF378BB0D2E90001DDF86080A0
:104B90000A908A46C1F30A5505B93D4600210846E8
:104BA0004FF00000BAF1000F00F4400005DA00EB0E
:104BB00080004FF4400101EA50004FEA9059B9F1EA
:104BC000010F00DDB9460A9850EA4A000ED044F6BB
:104BD0001050A5F2FF3545432F14B8F1000F1ED039
:104BE0007542291E1EDDC9F100021CE0B8F1010F5B
:104BF0004FF0000001D0302103E0F24305E02154E2
:104C0000401CB042FBDB30460022002121540B99AE
:104C1000C1F80880C1E900200FB0BDE8F08FBD1BCE
:104C20006D1CDEE74A4600DA694206A800F0AAFBDE
:104C300006AB93E8070003AB83E8070050460A99E8
:104C400001F02EF98DE80700A0F500501F38009004
:104C50000398002D0ADD42F21F014A460844002352
:104C600003A90390684601F0D9FB09E0A0F50050C4
:104C70004A461F38002303A90390684601F0F8FB59
:104C80008DE807000004000C03D04FF0FF3041080E
:104C900000E01046B8F1000F03D000220092154644
:104CA0001EE0751E05D400F06FFA303262556D1E9D
:104CB000F9D5B3460122084302D000227F1C04E04C
:104CC0002078302801D100227F1E002A099784D045
:104CD0001DE0112D07DA00F057FA303262556D1CD5
:104CE00050EA0102F5D1084302D00098C8B10EE0A5
:104CF0000021681E05E0235C625C63542254401E60
:104D0000491C8142F7DBAB46A81B401E09900020DE
:104D100004F80B000B98099AC0F80880C0E9002B32
:104D20007AE711264FF0000857E72DE9F04F884643
:104D30000446D21D22F0070191B0D1E90001CDE96E
:104D40000A0108F075FC02460B98C00F01D02D2017
:104D500007E02068810701D52B2002E0202101EA2D
:104D6000C000032A099001D0072A05DB034641460B
:104D7000204600F057FA0BE12078800601D5E06963
:104D800000E00620B8F1650F814606D0B8F1660F45
:104D900018D0B8F1670F70D131E00020B9F1110FD0
:104DA000009001DB112301E009F101030AAA01A926
:104DB0000CA8FFF7E2FEDDE90C70002609F1010501
:104DC000834647E001204B4600904FF000470AAA77
:104DD00001A90CA8FFF7D1FEDDE90DB00C995D46E5
:104DE000002610B909F101000D18B9EB050003D434
:104DF000C0F1FF3609F10105A5EB09002BE0B9F17F
:104E0000010F01DA4FF001090020B9F1110F0090F4
:104E1000484601DD112300E003460AAA01A90CA8B7
:104E2000FFF7ABFEDDE90C704D4600268346207887
:104E300000070AD4AB4500DA5D4601A8012D04DD68
:104E4000411911F8011C302907D04F4502DA17F13A
:104E5000040F04DA012082460FE06D1EEEE7002FFA
:104E600002DCED1B3E4403E0781CA84200DD7D1C03
:104E7000B81B00F1010A4FF000472078000703D467
:104E8000AA4501DB4FF0FF3A0021B7F1004F0DF1C9
:104E900043088DF8431024D002202B23002F01DA81
:104EA0007F422D230A21021EA0F1010000DC5FB128
:104EB00097FBF1FC97FBF1F201FB1C7C17460CF110
:104EC000300C08F801CDEEE7A8F10100037021884D
:104ED000090501D5452100E06521A0F1010800F890
:104EE000011C09980FA9A1EB0807FF1D00B10120C3
:104EF000411901EBEA70A1693844081A401EA0610B
:104F00002078C00602D42046FFF78AFA099828B113
:104F1000D4E901219047206A401C20622078C00615
:104F200022D52046FFF77CFA1EE0002E04DBB345B5
:104F300002DD01A8805D00E03020D4E90121904726
:104F4000206A401C2062761CAAF101005FEA000A78
:104F50000AD100F015F9C0680168405CD4E901216C
:104F60009047206A401C2062281EA5F10105DCDC68
:104F700007E0D4E9012118F8010B9047206A401C92
:104F80002062381EA7F10107F3DC2046FFF75EFA26
:104F9000032011B041E6000001694A1C0261087853
:104FA000704700B58FB0CDE9013100210591054969
:104FB0007944CDE9031011466846FFF7E9FA0FB0CE
:104FC00000BD0000E5FFFFFF0A6802F8010B0A6060
:104FD0007047D1E900239A4202D2531C0B60107033
:104FE000704710B5436913B1AFF3008001E0FFF7DC
:104FF0003EFA012010BD127800F124010A7000224F
:105000004A700122EDE711684FF0FF32E9E7000036
:105010000FB4002300B589B00CA900910B99CB60A7
:10502000214B7B440693214B7B44079304236FF071
:105030000042CDE901321E4A7A446B46089202468C
:1050400000200AF0FAFD09B05DF814FB70B50646C1
:105050004FF0FF3015460C46324686B00091CDE940
:10506000010169460020049004A8FFF7D1FF024621
:105070000498211825B108B1084600E020462860B0
:10508000049800280DD0002A02DD0098884208D03C
:105090003246081B69460094CDE9010404A8FFF7D5
:1050A000B7FF06B070BD00007F020000970200004D
:1050B000D70100002DE9F04791460F46804604468F
:1050C000002614F8015B2DB100F052F80068405D35
:1050D000C007F6D12B2D02D02D2D18D0641E4A46C4
:1050E0003946204600F0FEF827B13968A14201D1C7
:1050F000C7F800804FF0020471050BD5404200282C
:1051000003DDFFF7D1FC0460A007BDE8F08746F49B
:105110008066E4E70028F8DAFFF7C6FC04606FF069
:105120000040F2E72DE9F04115460E46040002D199
:105130002C6804B90BA4204600F0A6F9044420789A
:1051400070B127463146384600F08EF90444207885
:1051500010B1002004F8010B38462C60BDE8F08146
:105160000027F9E700000000004870477C18002085
:1051700010B500F005F8001D10BD00BFF19C000047
:10518000004870479C18002030B5B0F10A024FEA81
:10519000900E71F100034EEA817EB0EB0E0061EBE0
:1051A00091014FEA101E4EEA017E10EB0E0041EB1A
:1051B00011114FEA102E4EEA016E10EB0E0041EB7A
:1051C00011214FEA104E4EEA014E10EB0E0041EB5A
:1051D0001141401841F100014FEAD00040EA41700E
:1051E0004FEAD10110EB80054FEA810444EA907444
:1051F00044EB01046D1944EB0404521BA3414FF02E
:10520000000348BF0A3200D530BD401C41F1000107
:1052100030BD10B50446FFF7ABFF0068005D00F03D
:10522000010010BD2DE9F0411F4604460326016828
:10523000072A01F4006004DB08B116A505E016A5F5
:1052400003E008B115A500E015A521F010002060CD
:10525000A069C01EA0610FB1401EA0612046FFF7EB
:10526000DFF84FB1D4E9012138469047206A401C4D
:105270002062C01C206206E0206AFAE7D4E901211E
:1052800015F8010B9047761EF8D22046FFF7DEF89E
:10529000BDE8F0814E414E006E616E00494E460001
:1052A000696E6600426842B1016811F8013B23B1A2
:1052B000521EC0E90012184670470121C160881EC5
:1052C000704742685AB1C368016843B983688B422A
:1052D00005D0491E521CC0E90012002070474FF053
:1052E000FF3070472DE9F05F824615468B46002758
:1052F0000AF10104B9460078302801D09DB113E0CD
:1053000014F8010B0127782803D0582801D045B1A3
:105310000AE00DB1102D07D1002714F8010B10255C
:1053200002E0082500E00A250026B0460EE005FB55
:10533000080005FB06F101271FFA80F801EB104673
:10534000B6F5803F00D3B94614F8010B294600F0AA
:10535000CEF80028EBDABBF1000F05D00FB1641EC8
:1053600000E05446CBF80040B9F1000F06D0FFF73B
:105370009BFB02210160C81EBDE8F09F48EA064081
:10538000FAE700002DE9F047814616468AB0354815
:1053900078440DC88DE80D0032487844801C03AC79
:1053A0000DC884E80D0041F69B300844372190FB7E
:1053B000F1F290FBF1F5A5F1800501FB12041B3C15
:1053C00002D56442012000E00020DFF898A080466A
:1053D0000027FA44AAF1BE0A0EE0E0070AD03246DE
:1053E000684607EB470101230AEB810101F040F811
:1053F0008DE8070064107F1C002CEED1194F7F440C
:10540000AE3F19E0E80715D007EB04100DF1180ABC
:1054100090E80E008AE80E00C068F04201D19819A9
:1054200008903246012306A903A801F021F803AB36
:1054300083E807006D10641C002DE3D14FF00103D9
:1054400032466946B8F1000F03A802D000F0E6FF2B
:1054500001E001F00DF8C9E90001C9F808200AB01F
:10546000BDE8F087D0A9000030B503461D781DB116
:105470000A4603E0AC4201D1181A30BD12F8014BC4
:10548000002CF7D15B1CF1E730B503461D783DB128
:105490000A4612F8014B1CB1AC42FAD15B1CF5E78D
:1054A000181A30BD7546FFF75FFEAE460500694627
:1054B000534620F00700854618B020B5FEF7E2FEFF
:1054C000BDE820404FF000064FF000074FF0000805
:1054D0004FF0000B21F00701AC46ACE8C009ACE886
:1054E000C009ACE8C009ACE8C0098D4670473A284D
:1054F00000D2303820F02002412A01D3A2F1370037
:10550000884201D34FF0FF30704700002DE9FF4F74
:1055100006468BB00878FF2806D0491C2D2805D0F8
:1055200000244FF0000908E000200CE00124F8E717
:1055300009EB8903491C00EB43090878FF28F7D1E0
:1055400014B1C9F100008146107800252C46AA4606
:1055500029462D2801D02B2804D1521C2D2813D0E8
:10556000002082468B461078FF280FD04FF0000CA9
:105570000A21521CA5FB017804FB018105FB0C11DB
:10558000C5194BEB0104EEE70120EAE700210846CC
:105590004FF00000BAF1000F02D000EB800040088D
:1055A000C0F38157012F01DD4FF0FF370E9955EA07
:1055B000040009EB01080BD04FF0020918F5FA7F3F
:1055C00016DA4FEACA70002F706008DD012007E08C
:1055D0004FEACA70C6E900B00FB0BDE8F08F0020F6
:1055E0003060FFF761FAC0F800901821084616E015
:1055F000B8F5FA7F18DD002F02DAF748784401E0A9
:10560000F6487844D0E90010C6E9001040EACA70B4
:105610007060FFF749FAC0F80090142108460FB0F7
:10562000BDE8F04F0AF043BA002108464FF00000F1
:10563000B8F10001099002DAC7F1000200E03A4631
:1056400001DAC8F1000106A8FFF79CFE06AB93E85B
:10565000070003AB83E8070044F23E005BEA040165
:105660000090584604D144F21E012C465D4600913C
:10567000210C0904014306D10099240444EA15448D
:105680002D041039009104F07F41014306D10099A7
:10569000240244EA15642D020839009104F0704197
:1056A000014306D10099240144EA15742D01091F14
:1056B000009104F04041014306D10099A40044EA5E
:1056C0009574AD00891E009104F00041084304D197
:1056D00000986D196441401E00904FF001033A4656
:1056E0006846B8F1000FCDE9014503A902DD00F0DD
:1056F000D4FE01E000F0A7FEBAF1000F04460D460B
:1057000001D084F00044002108464FF000000999C0
:1057100040F2FF77484010F00C0F07D124F0004012
:10572000284303D0C4F30A50B84212D1FFF7BCF9A2
:10573000C0F80090C4F30A50B8420AD1A84878448F
:10574000D0E90010C6E9001004F000410843706081
:1057500042E7C6E900543FE72DE9FF4F1F464FF0EF
:10576000000A4FF0FF38454691B0D7E90146CDF821
:105770003CA0FFF705FDC0680168405C1090B96966
:1057800012986D1C8847396A814688470028F6D1EF
:10579000B9F1FF3F0AD0002E24F4D06411DDB9F135
:1057A0002B0F08D0B9F12D0F0BD102E0404615B0F8
:1057B00013E744F48064B96912986D1C8847761E1B
:1057C0008146600504A901D52D2000E02B20002E84
:1057D00001F1010B0DF130088DF810003FDDB9F13A
:1057E000690F08D0B9F1490F05D0B9F16E0F02D099
:1057F000B9F14E0F1CD13B4601A8009580E850023C
:10580000DDE912126FF002000AF01BFAC11CCED1C2
:105810000EE0B96912986D1C884781461398761E70
:1058200044F4007405600F98401C002E0F9016DDA4
:10583000B9F1300FEDD0B9F1780F02D0B9F1580FAE
:105840000DD10F9801280AD13B46CDE90054DDE97E
:105850001212001F02960AF0F2F9C11CA7D110998A
:1058600089453ED144F0800406E01399681CAAF1F2
:10587000010A44F400740860B9696D1C1298761E20
:10588000884730288146F0D02BE01099894505D112
:10589000200603D4761E44F0800418E0484607F042
:1058A00078FF08B3761E0DF123018B4544F4007494
:1058B00008D2A9F130000BF8010B200607D5AAF198
:1058C000010003E0200602D40AF101008246A0058F
:1058D00002D51399681C0860B96912986D1C884735
:1058E0008146002ED1DC53E0002E51DDB9F1650F69
:1058F00002D0B9F1450F4BD1A00549D5B9696D1C4E
:105900001298761E24F440748847002E81460CDDE0
:105910002B2804D0B9F12D0F07D144F48074B96954
:1059200012986D1C8847761E8146E00501D52D2111
:1059300000E02B2108F8011BCDF8008021E0761E45
:105940000DF13901884544F400740CD2A9F13000FE
:1059500010F0FF0088F8000002D10099884509D9AD
:1059600008F1010806E0E00501D51E4801E042F219
:105970000F708246B96912986D1C8847814613984A
:105980000560002E04DD484607F003FF0028D6D14D
:10599000F96912988847FF2053468BF8000088F871
:1059A000000000200A900B9004AA0CA90AA8FFF797
:1059B000ADFDA00502D46FF00100F8E614F0240F4D
:1059C00012D0E0071CD13868DDE90A12031D3B60E4
:1059D0000068C0E9001213E0A4A7000096A7000029
:1059E0005AA60000F1D8FFFF0AA9684607F060FE3A
:1059F000E00705D13868009A011D3960006802602F
:105A00002846D4E610B50446AFF300802046BDE832
:105A10001040FEF723BC000001491820ABBEFEE792
:105A2000260002002DE9FF4F1F464FF03C0987B0CA
:105A30004FF00042DDE9141001F10108DDF858A033
:105A400002EA405003900020059083460546044634
:105A50000490B969461E08988847AAF1010A029085
:105A6000BAF1000F3BDD02982E2815D01021FFF768
:105A70003EFD00282EDB4FF0010B0599014317D0A6
:105A8000B9F1000F0BDB4A46C11700F0F6F90543E8
:105A90000C43A9F1040905E0012004900BE008B1D2
:105AA00045F0010501200590049820B9361D02E05B
:105AB000049800B1361FB969089808F101088847B1
:105AC000BBF1000FAAF1010A0290C9D00999C1F8EF
:105AD0000080C5E70298702808D0502806D0F969E0
:105AE00008988847BBF1000F14D04FE000200290C7
:105AF0000120BBF1000F049009D0B969089808F1A2
:105B000001088847AAF10109B9F1000F07DCF9691A
:105B1000089888476FF001000BB0BDE8F08F2B2884
:105B200004D02D280CD14FF0FF300490B9690898AB
:105B300008F101088847A9F10109B9F1000FE6DD74
:105B4000411CE4D00A21FFF7D2FC0028DFDB0299D8
:105B500008F1010801EB810100EB41000290B969F5
:105B6000089888470A21FFF7C2FC099AA9F10109A0
:105B7000B9F1000FC2F8008001DD0028E7DAF96909
:105B8000089888470499029800FB016655EA0400CA
:105B900004D004F04041090002D006E0039898E0E8
:105BA000A40044EA9574AD00B61E04F0004108005C
:105BB00002D16D196441761E159810F0240F03D0A0
:105BC0004FF00B095C4803E04FF028096FF07D00AF
:105BD0008246564507DAAAEB06018944B9F1410F1E
:105BE00001DD4FF0410901200021A9F1010200F07F
:105BF00044F9024628400B462140084301D00121C8
:105C000000E00021501E029143F1FF312840214065
:105C1000084301D0012000E000200299834651EAA8
:105C20000B014FD0002108464FF00000039900F40B
:105C3000400039B100EB80004FF4400100EBD07020
:105C400001EA60008015012802DD4FF0FF3000E01E
:105C500013D0401C36D0029860B3BBF1000F0CD1BA
:105C60004A460120002100F008F92840214008435D
:105C700001D0012000E00020E0B101204A460021CF
:105C800000F0FBF8034640190A4661412D1A8C4189
:105C900011D3B9F1400F09DD159810F0240F02D08F
:105CA000AAF1340603E0AAF1170600E0761C0025ED
:105CB0004FF0004406E05B1E42F1FF3220EA03058C
:105CC00021EA0204CAF10100B04206DA1B49039836
:105CD00008430190002000900EE0039AC4F3D32102
:105CE000E80A0A43164940EA44500A433146CDE9DE
:105CF0000002684607F042FD159810F0240F0BD003
:105D00001598C00715D13868DDE90012031D3B6006
:105D10000068C0E900120CE002A8694607F0C8FC60
:105D20001598C00705D13868029A011D39600068CE
:105D300002604046F0E6000002FCFFFF0000F07F3A
:105D40000000F03F2DE9FF4F92461D4685B04FF011
:105D50000041DDE9124BDDE914727F1E01EA4B5070
:105D6000414940F0FF4940EA0108002122F02000AB
:105D70004928049102D04E2828D04CE03BA00126AF
:105D800007C88DE80700A9690698641C88477F1E2C
:105D9000014606D41DF8060018B121F02001814209
:105DA0000BD0E96906988847032E34D0082E32D0EC
:105DB0006FF0010009B0BDE8F08F761C032E01D012
:105DC000082EE0D1601CCAF80000DCE7A96906983B
:105DD000641C88477F1E2AD420F02000412826D149
:105DE000A9690698641C88477F1E20D420F02000F3
:105DF0004E281CD1A9690698641C88477F1E48F468
:105E0000002849F48009CAF8004001D4282806D0A7
:105E1000E969069888475FEACB7012D022E0A96949
:105E20000698641C88477F1E01D4002803DAE969BC
:105E300006988847BCE72928F1D1641CCAF80040BD
:105E4000E9E71BF0240F07D028680499031D2B6095
:105E50000068C0E9001805E02868021D2A60006893
:105E6000C0F800902046A5E70000F07F494E464963
:105E70004E495459000000007047B2F120030AD582
:105E8000C2F1200301FA02F120FA03F300FA02F052
:105E900041EA0301704700FA03F14FF00000704738
:105EA0005FEA400C08BF91F0000F4FEA8C234FEAE5
:105EB000C12243EA51514FEA1C5018BF00F5F0408F
:105EC0004FEA300018BF41F000415FEA6C5C00F01F
:105ED0002980BCF1FF3F08BF40F080407047130CA1
:105EE00006BF12044FF0100C4FF0000C130E04BF4D
:105EF00012020CF1080C130F04BF12010CF1040C78
:105F0000930F04BF92000CF1020CD30F04BF520098
:105F10000CF1010C11464FF00002A0F11F00A0EBA4
:105F20000C00704711F0004F08BF704731F000417E
:105F30003FF4D5AF0B0C06BF09044FF0100C4FF027
:105F4000000C0B0E04BF09020CF1080C0B0F04BF70
:105F500009010CF1040C8B0F04BF89000CF1020C39
:105F6000CB0F04BF49000CF1010CCCF12003A0EBD6
:105F70000C0022FA03F302FA0CF241EA030100F1E9
:105F80000100704720F07F4C80EA030023F07F4738
:105F9000ACEB070303F57C5300F0004003F1FF0373
:105FA0002DE980494FEA154B09B44FEA144325EA1D
:105FB0000B4E24EA03480FF2042606EB1327490888
:105FC0003E785FEA320203FB0667C7F5000707FB6E
:105FD00006F64FEA54374FEAD64606F1020607FBAB
:105FE000066CCCF1005C4FEA1C472CEA074C07FB1F
:105FF00006F40CFB06F504EB15464FEA961634BF83
:1060000000204FF000404FEAD13706FB07FC4FEA73
:106010001C4C0CFB0BF7D21B03FB0CF761EB0701CD
:106020000CFB0EF7B0EB074072EB17420CFB08F7C6
:1060300034BFA2EB0742B2EB074261EB17414FEAD4
:106040000C444FEA910706FB07FC4FEA1C4C0CFB83
:106050000BF7B0EBC74072EB573203FB0CF734BFC2
:10606000A2EBC742B2EBC74261EB57310CFB0EF714
:10607000B0EBC70072EB57720CFB08F734BFA2EB12
:10608000C702B2EBC70261EB5771039F4FEA816110
:1060900041EA921104EBCC044FEAD1374FEA826215
:1060A00006FB07FC42EA90124FEA80604FEA1C4C64
:1060B0000CFB0BF7D21B03FB0CF761EB07010CFB8E
:1060C0000EF7B0EB074072EB17420CFB08F734BF3A
:1060D000A2EB0742B2EB074261EB17414FEA8C5546
:1060E0004FEA910704EB9C2406FB07FC4FEA1C4C8B
:1060F0000CFB0BF7B0EBC74072EB573203FB0CF70E
:1061000034BFA2EBC742B2EBC74261EB57310CFB85
:106110000EF7B0EBC70072EB57720CFB08F734BFF9
:10612000A2EBC702B2EBC70261EB577115EB4C252E
:106130004FEA816141EA92114FEA82624FEAD13718
:1061400042EA901206FB07FC44F100044FEA80602B
:106150004FEA1C4C0CFB0BF7D21B03FB0CF761EB5B
:1061600007010CFB0EF7B0EB074072EB17420CFB7C
:1061700008F734BFA2EB0742B2EB074261EB1741CD
:1061800015EB1C154FEA813141EA92414FEA823208
:1061900042EA90424FEA80304FEA0C7644F1000424
:1061A00048EA03434EEA0B484FF0000EB2EB080CEE
:1061B00071EB030724BF624639464EEB0E0E4FF0DB
:1061C000000B0018524149414BEB0B0BB2EB080C92
:1061D00071EB03077BF1000B24BF624639464EEB9F
:1061E0000E0E4FF0000B0018524149414BEB0B0BC8
:1061F000B2EB080C71EB03077BF1000B24BF624686
:1062000039464EEB0E0E51EA020718BF46F0010662
:1062100016EB0E7655F1000254F1000103D5BDE8EE
:106220008901BDE80088BDE88901BDE80048B619CC
:10623000524141EB0101A3F10103704780807F7E51
:106240007D7C7B7A797877767675747372717170EC
:106250006F6E6E6D6C6C6B6A6A696868676666659E
:106260006464636362616160605F5F5E5E5D5D5C2C
:106270005C5B5B5A5A59595858575756565555559D
:106280005454535352525251515050504F4F4F4EFD
:106290004E4D4D4D4C4C4C4B4B4B4A4A4A4949494B
:1062A000484848474747474646464545454444448D
:1062B00044434343434242424241414146EA064647
:1062C000A3F570534FEA164646EA42564FEAD222E9
:1062D00042EA415210B54FEAD121A3F1010300F087
:1062E0002FF820F0004000F1020C00F0004701EB15
:1062F00000501146BCF5006F40EA070000D210BD07
:10630000BAF1000F0AD01CB503B44FF004004FF0EF
:1063100004014FF000000FBCBDE810404FF0000139
:10632000BBF1010FB9BF04484FF0FF310348002112
:1063300040EA070010BD00BFFFFFEF7F0000F07FC5
:10634000002B9C4630D477002BD01CB54FEA370782
:1063500003B44FF010004FF01001BAF1000F06D057
:10636000BCF1000FDCBF40F0080040F008014FF026
:1063700000000FBCBDE810400BF1010BBBF1010F99
:1063800008BF5FEA170722BF12F1010211F10101F4
:106390004FF0004143F1000300F0004043EA0000E9
:1063A0007047F9D35708D0E746EA064613F1400F85
:1063B0004FEA16461FDD13F1200FDFBF16430A46D2
:1063C000002120335B42BED0C3F1200746EA0646D7
:1063D00002FA07F74FEA164646EA0706C3F1200716
:1063E00022FA03F201FA07F721FA03F14FF0000352
:1063F00042EA0702A7E746EA020646EA06464FEAED
:10640000164646EA0106BCBF46EA0646360C4FF081
:1064100000034FF000024FF0000194E72DE9804C9B
:106420009A46934670B491E8380007C831EA400CA8
:1064300048BF34EA430C03D5FFF7A4FDFFF780FF04
:10644000F0BCBDE8008C2DE9804C9A46934670B4B0
:1064500091E8380007C831EA400C48BF34EA430CE1
:1064600003D5FFF78FFDFFF729FFF0BCBDE8008CD7
:106470002DE9804C9A46934670B491E8380007C8DD
:1064800010F0804F08BF13F0804F03D100F01AF8CE
:10649000FFF756FFF0BCBDE8008C2DE9804C9A4612
:1064A000934670B491E8380007C810F0804F08BFD9
:1064B00013F0804F03D100F005F8FFF7FFFEF0BCAA
:1064C000BDE8008C20F07F4780EA030023F07F4C7A
:1064D00007EB0C03A3F57C5300F00040A3F1FE038F
:1064E00092F0000F00F0B38095F0000F00F077807D
:1064F0002DE901494FEA11404FEA144621EA0048CC
:1065000000FB06FC24EA064708FB06F607FB08F832
:1065100000FB07F718EB06484CEB164C4FEA124B02
:1065200018EB07484FEA15464CEB174022EA0B4E92
:106530000BFB06FC25EA06470EFB06F607FB0EFEE4
:106540000BFB07F71EEB064E4CEB164C4FF000060C
:106550001EEB074E4CEB174B18EB0B0840F10000FD
:1065600018EB0E0B58EB000840F100008F1A4FF0AB
:1065700000013CBFC943661B14BFB5EB040C0021EE
:106580003CBFC943F61B4FEA17444EEA8E0E27EA7A
:1065900004454FEA1C4704FB07622CEA074C05FB45
:1065A00007F70CFB05F604FB0CFC16EB074642EB69
:1065B000174216EB0C4642EB1C421BEB060658EB4F
:1065C0000202414146EA9E0601D5BDE80189B6199D
:1065D000524141EB0101A3F10103BDE801894FEAFA
:1065E00014454FEA114724EA054621EA074C05FB0A
:1065F00007F406FB07F70CFB06F105FB0CFC11EB9F
:10660000074144EB17444FEA124711EB0C4144EBAE
:106610001C4422EA074C05FB07F206FB07F70CFBBC
:1066200006F605FB0CFC16EB074642EB174216EB91
:106630000C4642EB1C456A1854F1000148BF7047F4
:10664000B619524141EB0101A3F10103704795F0E6
:10665000000F37D04FEA11424FEA144721EA0246B1
:1066600024EA074C02FB07F106FB07F70CFB06F4D4
:1066700002FB0CFC14EB074441EB17414FEA1547B2
:1066800014EB0C4441EB1C4125EA074C02FB07F5D7
:1066900006FB07F70CFB06F602FB0CFC16EB0746A5
:1066A00045EB174516EB0C4645EB1C42121951F110
:1066B000000148BF7047B619524141EB0101A3F1F7
:1066C000010370474FEA14454FEA114724EA054693
:1066D00021EA074C05FB07F106FB07F70CFB06F266
:1066E0004FF0000605FB0CFC12EB074241EB174193
:1066F00012EB0C4251EB1C4148BF7047921841EB22
:106700000101A3F10103704710B5024801F012FD29
:1067100010BD0000DC01002070B504460025206893
:10672000806800F0010018B32068806820F0010044
:106730002168886003F042FD054613E003F03EFD4A
:10674000401B02280ED92068806800F0010048B183
:10675000A06A40F01000A062E06A40F00100E06230
:10676000012070BD2068806800F001000028E5D19C
:106770000020F6E738B50446002500200090206888
:10678000806800F0010078BB2068806840F001005C
:1067900021688860194800681949B0FBF1F0009041
:1067A00002E00098401E009000980028F9D103F004
:1067B00005FD054619E003F001FD401B022814D930
:1067C0002068806800F0010078B9A06A40F01000ED
:1067D000A062E06A40F00100E06200BF002084F89F
:1067E000240000BF012038BD05E02068806800F06B
:1067F00001000028DFD00020F5E700001000002095
:1068000040420F001CB5694804F0BEFC07F080F957
:1068100005F07CFA01F0D4FA002040F6B8311E23CE
:106820004022CDE900106249624800F0F9F80020EA
:1068300040F6B8311E238022CDE900105C495E4845
:1068400000F0EEF85D4800F0A5FA5D4800F0A2FA0D
:106850005C4800F09FFA5C49012008F04BF95B4965
:1068600008600846006808B900F02AFCC8215748AB
:10687000006808F095F95548006808F094F9544903
:10688000012008F037F9534908600846006808B944
:1068900000F016FC4FF47A714E48006808F080F959
:1068A0004D49002008F026F94C4908600846006868
:1068B00008B900F005FC4A49012008F01BF94949D4
:1068C00008600846006808B900F0FAFB96214548C0
:1068D000006808F065F94348006808F064F9424927
:1068E000012008F007F9414908600846006808B926
:1068F00000F0E6FB0A213D48006808F051F93B48EA
:10690000006808F050F900220221294803F050FCE9
:1069100007F035FD08F0BAF801220221244803F0FF
:1069200047FC4FF4FA7003F083F907F0E5F8002212
:1069300002211F4803F03CFC4FF4FA7003F078F991
:1069400008F0A4F801220221194803F031FC4FF4A9
:10695000FA7003F06DF907F0CFF805F025FD08F0A7
:1069600081F900202249087022490870012022493B
:10697000087041F288311948006808F011F9174889
:10698000006808F010F906F0E3F81C481C49C860DC
:106990001C4888602520488040F2DA200880592071
:1069A00088802E20488208F061F81CBD5C0200201F
:1069B000000C01405C0A0020840A00206C010020C9
:1069C00090010020B4010020797800085C000020CC
:1069D0002575000860000020917C000864000020FC
:1069E0002D7A000868000020017100086C0000206A
:1069F000790000207A0000207B000020000048423F
:106A0000C81700200000C84110B500F023FC06F0B4
:106A100005FF05F011FA05F045FC10BD00BFFEE7CB
:106A20002DE9F04704460D4616461F46DDE9088964
:106A30002560A680A760C4F80C803146284603F084
:106A4000AFFB2077207F6077002020616061A0612C
:106A5000E0772062A077C4F82490BDE8F0872DE9A4
:106A6000F041044601F012FA05460027A18820688B
:106A700003F096FB0646607FB04201D0A5616677C1
:106A8000A069281AA168884243D3207FB04213D05E
:106A90002677207F18B925610020A0770CE065617A
:106AA000A07F18B9E07F401CE0772562606A10B1D2
:106AB0000420616A88470427207F70B9A07F60B9ED
:106AC0002069281AE168884207D30120A077606A0C
:106AD00010B10320616A88470327E07F002818DD92
:106AE000206A281AFA2814D9E07F012806D1606AA2
:106AF00010B10120616A8847012708E0E07F022881
:106B000005D1606A10B10220616A8847022700201F
:106B1000E0773846BDE8F08110B5024801F05EFF2D
:106B200010BD00000C02002010B5024801F056FF15
:106B300010BD000034020020F0B50D46059CC0F3E6
:106B40000741C0F30727C0F3006600F0FF0CC3F84D
:106B500000C0C0F3826C85F800C0F02907DA277006
:106B60004FEA064C4CEA012CC2F800C00BE04FF093
:106B7000FF0C84F800C04FEA064C4CEA012C4CEAAA
:106B8000070CC2F800C0F0BD10B5024802F0F0FDDD
:106B900010BD00000C04002030B590F840500124D6
:106BA000AC40C56B6C60046863604468102C04D111
:106BB0000468A2600468E16003E00468A1600468FE
:106BC000E26030BD704700002DE9F04105460E46F9
:106BD00017469846032D07D205EBC500224901EB65
:106BE0008000807A012801D0BDE8F08105EBC50066
:106BF0001D4901EB800000F1180405EBC50001EB15
:106C00008000C07A02280CD12089B04209D1608965
:106C1000B84206D1B8F1FF0F02D0A079002800DDFC
:106C2000E2E702202070002020710120607126819F
:106C3000678184F80680668005EBC5020A4B03EB8A
:106C40008202118905EBC50203EB82025068002223
:106C500003F0AEFA022005EBC501034A02EB810105
:106C6000C87200BFC0E700001018002010B5002453
:106C700089E004EBC400464901EB8000807A0028DB
:106C800056D104EBC40001EB8000007B4006000EEF
:106C900004EBC4013E4A02EB8101087304EBC4001B
:106CA000114601EB8000407BE8B904EBC4020B46BF
:106CB00003EB8202118904EBC40203EB82025068E9
:106CC00003F06EFA00285CD104EBC400304901EBFC
:106CD0008000007B40F0010004EBC4012C4A02EB71
:106CE000810108734DE004EBC400294901EB8000E9
:106CF000407B012845D104EBC4020B4603EB820222
:106D0000118904EBC40203EB8202506803F048FAD5
:106D1000B8B304EBC4001E4901EB8000007B40F0D7
:106D2000010004EBC4011A4A02EB8101087328E058
:106D300004EBC400164901EB8000807A012820D1C1
:106D400004EBC40001EB8000408B002819DD04EB4C
:106D5000C40001EB8000408B401E81B204EBC400F4
:106D60000B4A02EB8000418304EBC400114601EBA7
:106D70008000408B28B9012104EBC40002EB8000A5
:106D80000177601CC4B2032CFFF473AF10BD000088
:106D90001018002010B50446217801EBC101294AE2
:106DA00002EB8101606848602089217801EBC10114
:106DB00002EB810108810020217801EBC10102EB87
:106DC0008101C872A07A217801EBC10102EB810137
:106DD0008872207800EBC000114601EB8000807AB9
:106DE00050B9207800EBC00001EB8000D4E9042307
:106DF000E1680C300EC023E0207800EBC0001149A0
:106E000001EB8000807A01281AD1207800EBC000C5
:106E100001EB8000A1698161E169C161216A0162C0
:106E2000227802EBC202074B03EB8202118922781F
:106E300002EBC20203EB82025068012203F0B8F9B0
:106E400010BD00001018002010B5002431E104EB43
:106E5000C4009A4901EB8000807A002858D104EBE5
:106E6000C40001EB8000007B00F01F001F2819D137
:106E700004EBC40001EB8000C07A98B9012004EB58
:106E8000C4018E4A02EB8101C87204EBC4001146B2
:106E900001EB8000006928B104EBC40102EB810121
:106EA0000869804704EBC400844901EB8000007B43
:106EB00000F01F0000282AD104EBC40001EB800081
:106EC000C07A0128F7D1002004EBC4017B4A02EB11
:106ED0008101087304EBC400114601EB8000C07B04
:106EE000012805D0002004EBC40102EB8101C87227
:106EF00004EBC400714901EB80004069002806D012
:106F000004EBC4016D4A02EB810148698047CEE081
:106F100004EBC400694901EB8000807A0128F6D1B6
:106F200004EBC40001EB8000007F0128EFD10021B9
:106F300004EBC400614A02EB8000017704EBC4005B
:106F4000114601EB8000007E01281AD1002004EBDD
:106F5000C40102EB81010876002104EBC40002EBBE
:106F60008000418304EBC402544B03EB820211897D
:106F700004EBC40203EB82025068012203F018F90B
:106F800095E004EBC4004D4901EB8000007E02282F
:106F90005CD1002004EBC401484A02EB8101087671
:106FA000002104EBC40002EB8000418304EBC40029
:106FB000114601EB8000807F002871DD04EBC400E6
:106FC00001EB8000407F012841D104EBC40001EBBC
:106FD0008000807FFF2812D004EBC40001EB80000A
:106FE000807F00280BDD04EBC40001EB8000807F74
:106FF000401EC1B204EBC40002EB80008177002187
:1070000004EBC4002D4A02EB8000417704EBC4027C
:107010002A4B03EB8202118904EBC40203EB8202C8
:107020005068012203F0C4F804EBC400234901EBCB
:107030008000418C04EBC400204A02EB80004183B5
:10704000022004EBC40102EB810108762FE004EB7F
:10705000C4001A4901EB8000018C04EBC400174AFC
:1070600002EB80004183022004EBC40102EB8101AA
:10707000087604EBC402114B03EB8202118904EB86
:10708000C40203EB82025068002203F091F8012150
:1070900004EBC400094A02EB8000417707E0FFE7F8
:1070A000002004EBC401054A02EB8101C872601C98
:1070B000C4B2032CFFF4CBAE10BD000010180020AA
:1070C00072B600BFFEE7000010B50020044908704A
:1070D0000223C82264211846FFF776FD10BD000088
:1070E0007400002010B50120044908700223C82252
:1070F00064211846FFF768FD10BD000074000020F1
:1071000070B506464B48FFF7AAFC04464A48FFF70D
:10711000A6FC0546012C04D0022C22D0032C2ED133
:107120002CE046490978481CC11700EB9171891081
:10713000A0EB8101414A11701046007807F022FE51
:107140003E48007818B13D480078032802D100205D
:107150003B4908700223C82264211846FFF734FD1A
:107160000EE03848007880F00100364908700223AC
:10717000C82264211846FFF727FD01E000E000BFA8
:1071800000BF012D04D0022D37D0032D4FD135E0A3
:107190002B480078B0B929480078022803D0274846
:1071A0000078012828D10120254908704FF07E5031
:1071B0002549086048600223C82264211846FFF769
:1071C00003FD19E01E480078012815D100201C4954
:1071D00008701A480078022802D107F0D3FD05E0B4
:1071E00016480078012801D107F0CCFD0223C822FF
:1071F00064211846FFF7E8FC1AE019E0134800780C
:10720000012805D1002007F0A9F91149087007E00D
:107210000E48007820B9012007F0A0F90C49087049
:107220000223C82264211846FFF7CEFC00E000BF0D
:1072300000BF70BD5C0A0020840A00200901002004
:107240007500002072000020E817002008010020CF
:107250007600002010B55C48007800287ED05BA145
:107260005C4807F09AF850B95BA15A4807F095F8C6
:1072700028B95BA1574807F090F8002823D053A104
:10728000544807F08AF828B1574A50A1514807F0EE
:107290000BF814E050A14F4807F07FF828B1524A8C
:1072A0004DA14C4807F000F809E04DA1494807F00E
:1072B00074F820B14C4A4AA1464806F0F5FF4B4904
:1072C000494806F069FE4AA1424807F066F848B905
:1072D00049A1404807F061F820B949A13D4807F0AD
:1072E0005CF820B342A13B4807F057F828B13E4A6A
:1072F0003FA1384806F0D8FF14E03FA1354807F019
:107300004CF828B1384A3CA1324806F0CDFF09E0DC
:107310003BA1304807F041F820B1334A38A12D484D
:1073200006F0C2FF31492C392F4806F0BBFD36A1CB
:10733000284807F032F848B935A1264807F02DF85B
:1073400020B935A1234807F028F830B32EA12148F1
:1073500007F023F838B1244A2BA100E033E01D48A0
:1073600006F0A2FF14E02AA11A4807F016F828B187
:107370001D4A27A1174806F097FF09E026A11548E6
:1073800007F00BF820B1184A23A1124806F08CFF31
:1073900016492431144806F097FE4FF480610D48D9
:1073A000FDF7C9FA64211048FDF7E7FA0020064905
:1073B00008701B480D492C3908601A4888601A4922
:1073C0000A482C38816510BD8400002024474E52A5
:1073D0004D430000C40F0020244750524D4300008D
:1073E00024474C524D43000070040020000500204B
:1073F00024474E474741000024475047474100007B
:1074000024474C474741000024474E56544700004C
:10741000244750565447000024474C565447000018
:107420004C47A841D288D342000040411CB50446D5
:107430005A208DF800002F48007870B90122694663
:10744000100206F067FC2C48C088002851D029485B
:107450000078401C274908704BE026480078012836
:107460000AD101226946000206F054FC2148007846
:10747000401C204908703CE01E48007802280BD1CF
:107480000122694640F2011006F044FC19480078D8
:10749000401C184908702CE01648007803280BD1CE
:1074A000012269464FF4817006F034FC11480078DF
:1074B000401C104908701CE00E48007804280BD1CD
:1074C000012269464FF4827006F024FC09480078D6
:1074D000401C084908700CE006480078052808D1CF
:1074E0000122694640F2051006F014FC0120014912
:1074F00008701CBDF0000020AC17002000200449DB
:1075000008700448007810B90120024908707047DB
:1075100077000020780000200120014908707047A2
:10752000770000202DE9F04F9BB0874908680021C3
:1075300008F070F836D084498868002108F06AF8AD
:1075400030D08149886D07F009FF04460D467E4919
:10755000086D07F003FF06460F467B49886807F071
:10756000FDFE804689467849086807F0F7FE02AAC2
:10757000A2E80303CDE90667CDE9084572488069B2
:1075800071494969CDE900106F4870A24FF400714C
:1075900003697948FCF728FF80B20B90764804F025
:1075A00083FC02E075A004F07FFC7B49B1F9080080
:1075B00008F0A0F88146794907F06AFF044607F011
:1075C000CDFE05460E467449C88808F0ABF88146E2
:1075D000724907F05DFF044607F0C0FE0746884683
:1075E0006D4880896C49498BCDE90456CDE9061078
:1075F000694800796AA24FF40071CDE900780290E1
:107600005D48FCF7F1FE80B21A905B4804F04CFC38
:107610006C49B1F9040008F06DF8064607F09EFECB
:1076200004460D466748B0F912006649098866A20B
:10763000CDE90045CDE902104FF400714E48FCF74A
:10764000D3FE80B219904C4804F02EFC5D49886846
:1076500007F084FE04460D465A49C86807F07EFECE
:1076600006460F465748B0F914005649B1F90210C2
:10767000544A128ACDE90067CDE90245CDE90421DB
:10768000069058A24FF400713B48FCF7ADFE80B263
:107690001890394804F008FC5B485C495CA35EA282
:1076A000CDE900104FF400713348FCF79DFE80B225
:1076B0001790314804F0F8FB5D48007828B95DA2C6
:1076C000142112A8FCF790FE1CE05948007801280C
:1076D00005D159A2142112A8FCF786FE12E05448E5
:1076E0000078022805D156A2142112A8FCF77CFECE
:1076F00008E04F480078032804D153A2142112A8AF
:10770000FCF772FE5248037852A214210DA8FCF730
:107710006BFE5248006807F021FE04460D460DA896
:1077200012A94FA2CDE90045CDE902104FF4007136
:107730001148FCF759FE80B20C900F4804F0B4FBDE
:107740001BB0BDE8F08F0000D404002024474E5346
:10775000532C47312C2530326425303264253032A9
:10776000642C252E36662C252E36662C252E316669
:107770002C252E31660D0A00F613002024474E53A7
:10778000532C47312C3030303030302C302C302CD2
:10779000302C300D0A000000AC17002000007A44A5
:1077A00024424D532C47312C252E31662C25303266
:1077B000642C252E31662C253034642C253032641F
:1077C0000D0A0000C8170020244D4F544F522C477B
:1077D000312C252E31662C253034642C2530326432
:1077E0000D0A000024564553432C47312C252E31D9
:1077F000662C252E31662C253034642C25303264DD
:107800002C253032640D0A003500002015000020C0
:10781000392E302E3400000024494E464F522C475A
:10782000312C25732C25732C25730D0A00000000C4
:107830000901002045636F004E6F726D616C00009E
:1078400053706F7274000000446F636B696E670061
:107850007000002045256C750000000058000020D5
:1078600024494E464F522C47322C252E31662C256A
:10787000732C25730D0A00002DE9F04F8DB05E4882
:10788000007830B95D4806F00BFF01205A490870B6
:10789000AEE059480078012810D1584BDA7A584B9D
:1078A0009978188806F016FF5448C17A5548007830
:1078B00006F050FF02205049087099E04E480078C9
:1078C000022806D1504806F0EBFE03204A49087012
:1078D0008EE04948007803286CD14C4890F810A0FD
:1078E00090F814B04A4880F800A080F801B0002059
:1078F0004749887018208860084606F023FD4448F0
:1079000006F020FD804689464049086807F0D2FE0F
:107910000A903E49086807F0CDFE09903B49086A85
:1079200007F0C8FE08903949486C07F0C3FE0B9079
:107930003649886C07F0BEFE0C900B9807F0F2FEFB
:1079400004460C9807F0EEFE05462F48C27A214601
:10795000284606F08DFF099807F0E4FE04460A98D1
:1079600007F0E0FE05462848C27A2146284606F080
:1079700047FF089807F06FFB04460D46099807F08B
:107980006AFB06460F460A9807F065FBCDE906013B
:107990001D48C07A32463B468DE830030490069875
:1079A00006F0A4FF1849C87A07F03CF804201249F1
:1079B00008701DE010480078042806D1154806F02C
:1079C0006FFE05200C49087012E00B48007805286E
:1079D0000ED11149087907F0A5FE04460D48C37A77
:1079E00000222146104606F0D3FE0020024908700E
:1079F0000DB0BDE8F08F00007D000020AC0000203D
:107A0000C8170020F1000020A0000020D4040020AE
:107A1000480A0020B8000020AC17002010B504462A
:107A2000014800F00FFD10BDDC0100202DE9F05FE2
:107A30008146002500248749886D07F03BFE85B20A
:107A40008548047985498868002107F07FFE06D2C1
:107A500082498868824907F0ADFE804988607F4A84
:107A60009168D06807F0A6FE064607F023FE7B4922
:107A700008827948B0F90800002805DA76480089BC
:107A8000404200B2744908817349B1F9080007F017
:107A900031FE82467049C88807F044FE834671492A
:107AA00007F0F6FC8046514607F084FE07466D4914
:107AB00007F0EEFC064607F0FDFD674948830846DF
:107AC00080894B2803DA0846C0894B2803DB032052
:107AD0006549087014E06148B0F914004B2803DBD5
:107AE0000420614908700BE05C48B0F912004B2893
:107AF00003DB05205C49087002E000205A49087049
:107B000055488089462803DA5348C089462804DB53
:107B10000121072004F0AAFC02E0072004F07CFC0D
:107B20004C490868002107F075FD0AD0494988686A
:107B3000002107F06FFD04D001210B2004F096FC1A
:107B400002E00B2004F068FC48480078012804D1CA
:107B50000121082004F08AFC02E0082004F05CFC0B
:107B600043480078012804D10121062004F07EFC5E
:107B700002E0062004F050FC3E48007801280BD1BA
:107B80003D480078012807D13C48007820B9012100
:107B9000092004F06BFC1CE03748007818B9092074
:107BA00004F03AFC15E034480078012803D133484A
:107BB0000078012802D02F48007850B90021092010
:107BC00004F00AFA01234FF4FA7211460220FEF77C
:107BD000FBFF22460023022004F0CCFC22460023B7
:107BE000184604F0C7FC264802684368072004F0E2
:107BF000C1FC1D48007828B92A460023032004F060
:107C0000B9FC05E0184802780023042004F0B2FC17
:107C10001C480078012807D11048018A0A46002331
:107C2000062004F0A7FC06E00C4801880A46002361
:107C3000052004F09FFC144802780023082004F07B
:107C400099FC124802780023092004F093FCBDE857
:107C5000F09F0000D4040020AC170020C8170020BB
:107C6000000080BF00007A447000002075000020F2
:107C700074000020760000207700002078000020AB
:107C8000600100207200002009010020080100208E
:107C900010B504460020034908700348006806F048
:107CA00085FF10BD7B000020640000200022054BF2
:107CB000DA61054A126942F00102034B1A61018040
:107CC00070470000500400200020024000201E49A0
:107CD000C96801F0100139B11C49C96941F00201BC
:107CE0001A4AD16140F010001749C96801F0040137
:107CF00039B11649C96941F00101144AD16140F016
:107D000004001149C96901F0010169B10F49C9694C
:107D100041F004010D4AD16100BF0B49C96921F04E
:107D20000101094AD16100BF00BF40F20111884240
:107D300006D10549C96921F00101034AD16101E079
:107D40000149C86000BF7047002002405004002075
:107D500070B5044602F032FA054609E0601C38B1FD
:107D600024B102F02BFA401BA04201D9032070BDC0
:107D70001248C06800F001000028EFD10F48C06829
:107D800000F0200020B100BF20200C49C86000BFD7
:107D90000A48C06800F0100048B90848C06900F0FF
:107DA000010020B90548C06800F0040018B1FFF7D1
:107DB0008DFF0120DBE70020D9E700000020024012
:107DC0001CB54FF480620949094803F0FFFE2E24D8
:107DD0002146074804F03CFF0020009003460122A2
:107DE00001460190024804F0F5FE1CBDC40B0020C2
:107DF000A402002070B505460F4803F085FB0F482C
:107E000000684068C0F5806084B20D48007860B9B1
:107E100001200B49087022460A490B48FCF70CFD6B
:107E20004FF480610748FCF786FD4FF480620549F6
:107E3000014803F0CBFE70BDA40200200C0400201A
:107E400084000020C40B0020C40F002038B5044675
:107E50000D4920680968884215D10B480068006800
:107E6000C0F3001078B100BF002000900648006801
:107E700000680090044800684068009000BF00BFA0
:107E80002046FFF7B7FF38BDA4020020014908686B
:107E900049687047600100207047000038B502460D
:107EA00000230020009000BF92F82400012801D197
:107EB000022038BD012082F8240000BF486807284E
:107EC00012D21068406B0C79641E04EB84051F24E9
:107ED000AC40A0430D796D1E05EB85050C68AC40E8
:107EE00020431468606327E048680D2812D21068A8
:107EF000006B0C79E41F04EB84051F24AC40A04305
:107F00000D79ED1F05EB85050C68AC402043146826
:107F1000206311E01068C06A0C790D3C04EB840505
:107F20001F24AC40A0430D790D3D05EB85050C6881
:107F3000AC4020431468E06208680A2812D3106835
:107F4000C0680C780A3C04EB44050724AC40A0430D
:107F50000D780A3D05EB45058C68AC40204314685C
:107F6000E0600FE0106800690C7804EB440507241A
:107F7000AC40A0430D7805EB45058C68AC40204330
:107F8000146820610868102802D00868112827D1D9
:107F9000174C1068A0421ED11068806800F40000E1
:107FA000F0B91068806840F400001468A0600868A8
:107FB000102815D10F4800680F4CB0FBF4F000EB0F
:107FC00080004000009002E00098401E0090009861
:107FD0000028F9D104E0906A40F02000906201236B
:107FE00000BF002082F8240000BF184661E70000AF
:107FF000002401401000002040420F0010B504464C
:1080000004492068884204D1034800F08FF80349EE
:10801000088010BD00240140DC010020FC0000208D
:1080200070B5044600250CB9012070BDA06A40F06F
:108030000200A0622046FEF76FFB0546002D69D1C5
:108040006FF01F00216808602068406835490840CB
:10805000216848602068806833490840216888604A
:108060002068C06800F07F402168C860206800690F
:1080700000F0404021680861206840696FF30B0000
:1080800021684861206880696FF30B00216888616E
:108090002068C0696FF30B002168C8612068006A1E
:1080A0006FF30B00216808622068406A6FF30B00D1
:1080B000216848622068806A6FF30B00216888623B
:1080C0002068C06A00F07F402168C8622068C06AEA
:1080D00000F07F402168C8622068006B00F04040DB
:1080E000216808632068406B00F0404021684863C5
:1080F0002068806B6FF31500216888632068806BAF
:108100006FF3150021688863204600F041F90020D4
:10811000E062A06200BF002084F8240000BF28466F
:1081200083E7000000003FFFF00601FF01460868FA
:10813000C06C704770B504462068056820684668C2
:1081400006F0200020282DD105F00200022829D1B8
:10815000A06A00F0100018B9A06A40F40070A06294
:108160002068806800F46020B0F5602F13D1207B78
:1081700088B92068406820F0200021684860A06A23
:1081800020F48070A062A06A00F4805018B9A06A40
:1081900040F00100A0622046FFF730FF6FF01200B0
:1081A0002168086006F08000802839D105F00400BD
:1081B000042835D1A06A00F0100018B9A06A40F474
:1081C0000050A0622068806800F4E040B0F5E04F05
:1081D0000DD02068406800F48060D0B920688068C5
:1081E00000F46020B0F5602F13D1207B88B920689F
:1081F000406820F0800021684860A06A20F4805028
:10820000A062A06A00F4807018B9A06A40F0010072
:10821000A0622046FFF740FE6FF00C002168086066
:1082200006F0400040280DD105F0010050B1A06AD1
:1082300040F48030A062204600F0A8F86FF0010002
:108240002168086070BD00002DE9F0410446002758
:1082500000250026A84614B90120BDE8F081A068D9
:1082600010B1207D00B100BFA06A30B90020E062EB
:1082700084F82400204600F0A5F82046FEF74CFACA
:108280000746A06A00F01000002873D1002F71D1BA
:10829000A06A20F4885040F00200A062E1696068A2
:1082A0000843217B40EA41000643A068B0F5807F87
:1082B00002D0A068012802D14FF4807000E00020B5
:1082C0000543207D012811D1207B38B9A069401ECB
:1082D0004FF4006141EA4030054307E0A06A40F0F6
:1082E0002000A062E06A40F00100E062206840687F
:1082F00020F469402843216848602068806821494B
:108300000840304321688860A068B0F5807F02D0C3
:10831000A068012802D14FF4807000E00020B0F581
:10832000807F03D1208A401E4FEA00582068C06A2F
:1083300020F4700040EA08002168C8622068806864
:1083400011490840B04208D10020E062A06A20F044
:10835000020040F00100A06211E0A06A20F00200DB
:1083600040F01000A062E06A40F00100E0620127E6
:1083700005E0FFE7A06A40F01000A0620127384640
:108380006BE70000FDF7E1FFFE0E1FFF70470000E6
:1083900010B504460849206888420CD10748806916
:1083A00020F40070054988610421054801F0CEFCE5
:1083B000122001F07FFF10BD002401400010024098
:1083C0000008014010B586B00446002002900390DA
:1083D000049005901849206888422AD100BF1748A8
:1083E000806940F40070154988610846806900F48E
:1083F0000070019000BF00BF00BF0846806940F0D8
:10840000040088610846806900F00400019000BF04
:1084100000BF042002900320039002A9084801F045
:108420002FFD00221146122001F076FF122001F0EC
:1084300063FF06B010BD00000024014000100240A0
:108440000008014070B50446002500BF94F82400E0
:10845000012801D1022070BD012084F8240000BF52
:108460002046FEF787F90546002D7DD1A06A40F62B
:108470000161884340F48070A0623F4920688842CF
:1084800008D13E48006800F4702008B9012002E0DD
:10849000002000E0012078B1A06A20F48010A062E2
:1084A0002068406800F4806000B3A06A20F40050A7
:1084B00040F48050A06219E0A06A40F48010A062ED
:1084C0002E49091F2068884203D02B492068884222
:1084D00004D12A48006800F4806000E0002028B140
:1084E000A06A20F4005040F48050A062A06A00F41A
:1084F000805020B1E06A20F00600E06201E0002038
:10850000E06200BF002084F8240000BFC01E216884
:1085100008602068406840F02000216848602068BA
:10852000806800F46020B0F5602F16D112492068F1
:10853000884208D11148006800F4702008B9012071
:1085400002E0002000E0012038B12068806840F49B
:10855000A000216888600CE006E02068806840F494
:1085600080102168886004E000BF002084F82400A7
:1085700000BF28466FE700000028014004240140A6
:1085800010B5024692F82030012B01D0022B06D103
:1085900010684069084314686061002010BD506A8B
:1085A00040F4802050620120F8E7F0B504460D4603
:1085B0001E4694F8207020688368A86800B900E01F
:1085C00000BF012F01D0022F7DD103F0806030B9B0
:1085D00003F0006018B903F0805000287ED0C3F388
:1085E0000161012088403060A86860B9B5F800C01A
:1085F000E86840EA4C5C206800F5C07000EB0110B0
:10860000C0F800C00FE0D5E901C040EACC00D5F8C1
:108610000CC040EA0C00D4F800C00CF5C07C0CEB98
:10862000011CCCF80000D5F810C0206800F5C0701F
:1086300000EB0110C0F804C0287D01280ED120688D
:1086400000F5C07000EB0110406840F4807C2068A9
:1086500000F5C07000EB0110C0F804C0D07900062E
:1086600092F806C040EA0C4092F805C040EA0C209F
:1086700092F804C040EA0C00D4F800C00CF5C07CAD
:108680000CEB011CCCF80C00D078000692F802C06C
:1086900040EA0C4092F801C040EA0C2092F800C079
:1086A00040EA0C00D4F800C00CF5C07C0CEB011CB7
:1086B000CCF80800206800F5C07000EB01100068DD
:1086C00040F0010C01E00FE008E0206800F5C07008
:1086D00000EB0110C0F800C00020F0BD606A40F45B
:1086E000001060620120F8E7606A40F48020606258
:1086F0000120F2E7F0B504460A46216894F82050BC
:10870000012D01D0022D7ED1424901F5007108688A
:1087100040F001000860086820F47C500860086898
:10872000566A40EA06200860107D00F01F0601200E
:1087300000FA06F3C8699843C861A1F50071D069D1
:10874000C8B9D1F80C029843C1F80C02908880B2E5
:10875000968940EA064601F51070576940F837607F
:10876000108880B2168940EA064601F510705769F4
:1087700000EBC7004660D069012819D1D1F80C027E
:108780001843C1F80C02908880B2168840EA064669
:1087900001F51070576940F83760908980B21689EA
:1087A00040EA064601F51070576900EBC7004660C5
:1087B000906928B9D1F804029843C1F8040204E092
:1087C000D1F804021843C1F80402106928B9D1F89D
:1087D00014029843C1F8140204E0D1F814021843BB
:1087E000C1F81402106A012804D1D1F81C02184300
:1087F000C1F81C02D1F8000220F00100C1F800020B
:108800000020F0BDFFE7606A40F480206062012034
:10881000F7E700000064004010B504460CB90120E1
:1088200010BD204600F022FE204600F0B9FA206874
:10883000006840F40040216808600020606284F80D
:10884000200000BFECE7704770B5044694F8205054
:10885000012D01D0022D7DD151B92068C06800F0F2
:10886000030080B9606A40F400106062012070BDAE
:108870002068006900F0030028B9606A40F4001025
:1088800060620120F3E7206800F5D87000EB01106A
:10889000006800F004009060906840B9206800F51E
:1088A000D87000EB01100068400D106007E02068F0
:1088B00000F5D87000EB01100068C0085060206817
:1088C00000F5D87000EB0110006800F00200D060E5
:1088D000206800F5D87000EB0110406800F00F0030
:1088E000082802D30820106108E0206800F5D8703D
:1088F00000EB0110406800F00F001061206800F5E7
:10890000D87000EB0110406800F47F40000A9061CD
:10891000206800F5D87000EB01104068000C506131
:10892000206800F5D87000EB01108068187020688E
:1089300000F5D87000EB0110806800F47F40000A59
:108940005870206800F5D87000EB0110806800F4C2
:108950007F0000E03CE0000C9870206800F5D870C3
:1089600000EB01108068000ED870206800F5D87008
:1089700000EB0110C0681871206800F5D87000EB9A
:108980000110C06800F47F40000A5871206800F5AB
:10899000D87000EB0110C06800F47F00000C9871E3
:1089A000206800F5D87000EB0110C068000ED87187
:1089B00031B92068C06840F020002668F06005E00A
:1089C0002068006940F020002668306100204EE7F2
:1089D000606A40F480206062012048E72DE9F05F82
:1089E00004460025206846692068D0F80490206875
:1089F00087682068D0F80CA02068D0F810B02068F4
:108A0000D0F8188006F00100002855D007F00100CA
:108A1000C0B101202168886007F0020018B120462B
:108A200000F05AFD0EE007F0040010B145F40065B7
:108A300008E007F0080010B145F4805502E0204638
:108A400000F049FD07F48070C8B14FF480702168D0
:108A5000886007F4007018B1204600F03FFD0EE07A
:108A600007F4806010B145F4005508E007F4006099
:108A700010B145F4804502E0204600F02EFD07F4D9
:108A80008030C8B14FF480302168886007F400302E
:108A900018B1204600F024FD0EE007F4802010B14C
:108AA00045F4004508E007F4002010B145F4803596
:108AB00002E0204600F013FD06F0080038B10AF08D
:108AC000100020B145F4007510202168C86006F040
:108AD000040040B10AF0080028B108202168C860ED
:108AE000204600F075FA06F0020038B12068C06830
:108AF00000F0030010B1204600F06CFA06F04000D0
:108B000038B10BF0100020B145F4806510202168C9
:108B1000086106F0200040B10BF0080028B10820E1
:108B200021680861204600F06FFC06F0100038B1A3
:108B30002068006900F0030010B1204600F065FCD9
:108B400006F4003040B109F0100028B1102021686F
:108B50004860204600F05AFC06F4803040B109F02D
:108B6000080028B1082021684860204600F0B9FCC0
:108B700006F4004088B309F0040078B306F480706E
:108B800020B108F0010008B145F0010506F40070BD
:108B900020B108F0020008B145F0020506F480603B
:108BA00020B108F0040008B145F0040506F40060A7
:108BB000A0B108F0700088B108F07000402817D00C
:108BC00006DC10280BD020280CD0302819D10CE05E
:108BD000502810D0602814D110E01DE019E045F0B5
:108BE00008050FE045F010050CE045F0200509E010
:108BF00045F0400506E045F0800503E045F480754A
:108C000000E000BF00BF2068806920F0700021688C
:108C100088610420216848602DB1606A2843606241
:108C20002046FFF710FEBDE8F09F70B504460CB972
:108C3000012070BD94F8200010B9204600F0FEF825
:108C40002068006840F001002168086001F0B6FA71
:108C500005460DE001F0B2FA401B0A2808D9606A07
:108C600040F400306062052084F820000120E0E735
:108C70002068406800F001000028EBD02068006800
:108C800020F002002168086001F098FA05460DE026
:108C900001F094FA401B0A2808D9606A40F40030B9
:108CA0006062052084F820000120C2E72068406847
:108CB00000F002000028EBD1207E012806D12068B8
:108CC000006840F080002168086005E020680068C6
:108CD00020F0800021680860607E012806D12068AD
:108CE000006840F040002168086005E020680068E6
:108CF00020F0400021680860A07E012806D120688D
:108D0000006840F020002168086005E020680068E5
:108D100020F0200021680860E07E012806D120684C
:108D2000006820F010002168086005E020680068F5
:108D300040F0100021680860207F012806D12068DB
:108D4000006840F008002168086005E020680068BD
:108D500020F0080021680860607F012806D12068A3
:108D6000006840F004002168086005E020680068A1
:108D700020F0040021680860D4E902010843216959
:108D80000843616908436168491E08432168C86156
:108D900000206062012084F82000002049E70000E4
:108DA00010B5044620492068884219D11F48006840
:108DB000401E1E4908600846006828B91C48C06962
:108DC00020F000701A49C8614FF44071194800F052
:108DD000BDFF142001F06EFA142001F06BFA22E0BE
:108DE0001549206888421ED11148C06920F0806072
:108DF0000F49C8610D480068401E0C4908600846CC
:108E0000006828B90A48C06920F000700849C861A4
:108E10004FF44051074800F099FF402001F04AFA12
:108E2000402001F047FA10BD00640040000000201F
:108E300000100240000C01400068004010B586B0F0
:108E40000446002002900390049005905A4920683F
:108E5000884254D159480068401C58490860084667
:108E6000006801280DD100BF5548C06940F000706E
:108E70005349C8610846C06900F00070019000BF06
:108E800000BF00BF4E48806940F008004C4988612F
:108E90000846806900F00800019000BF00BF8815F7
:108EA000029000200390049002A9464800F0E8FFD9
:108EB0004FF400700290022003900320059002A955
:108EC000404800F0DDFF00BF3F49486820F4C04043
:108ED00040F0E06040F48040486000BF002211464E
:108EE000142001F019FA142001F006FA00221146AC
:108EF000142001F011FA142001F0FEF95AE0334970
:108F00002068884256D100BF2D48C06940F080607B
:108F10002B49C8610846C06900F08060019000BF1D
:108F200000BF26480068401C2449086008460068C5
:108F300001280DD100BF2248C06940F000702049CF
:108F4000C8610846C06900F00070019000BF00BF12
:108F500000BF1B48806940F0080019498861084635
:108F6000806900F00800019000BF00BF88140290E3
:108F700000200390049002A9124800F081FF4FF4F2
:108F800000500290022003900320059002A90D4892
:108F900000F076FF00221146402001F0BDF940208C
:108FA00001F0AAF900221146402001F0B5F9402055
:108FB00001F0A2F906B010BD0064004000000020DE
:108FC00000100240000C0140000001400068004019
:108FD000704700002DE9F0410546F94928688842AC
:108FE0006FD1F84BF84A00212846FFF72DFCF648D0
:108FF0008068042866D1F4488088C0F307200928D7
:1090000060D1F0480078FF280DD10220EF490870A8
:10901000002005E0EB49095CC943EA4A1154401CB1
:109020000428F7DB02E00020E8490870E5480078F2
:10903000E7490880E3484078097840EA0120E4499C
:109040000880E0488078097840EA0120E0490880FB
:10905000DC48C078097840EA0120DD4908800846EC
:10906000008810B90120D9490870D9480088072123
:1090700090FBF1F0D6490880D2480479407940EA63
:10908000042004B208468480B0F904000A2190FB51
:10909000F1F000B2CE498880CA4880794880C9483A
:1090A000C079897840EA012000B2C9494880084661
:1090B000B0F902000A2190FBF1F000B2C4494880E7
:1090C00089E08BE1C0488068042850D1BE48808880
:1090D000C0F3072010284AD1BA480078BC498882DA
:1090E000B8484078097D40EA012000B2B84988823A
:1090F0000846B0F914000A2190FBF1F000B2B4491F
:109100008882B04880784882AE48C078897C40EA3E
:10911000012000B2AE494882B1F9120006F0EAFA25
:109120008046AC4906F0B4F9074606F0A7FA00B24B
:10913000A7494882A3480479407940EA042004B250
:10914000204606F0D7FA804604F08AFC074606F06F
:1091500095FA06B2701C00283DD0304606F0CAFAD7
:1091600007469C4906F094F99949886033E096488F
:10917000806804282FD194488088C0F307201B28DA
:1091800029D190480078924988618E484078896951
:1091900040EA01208E4988618A488078896940EADE
:1091A00001208B4988618748C078896940EA01209D
:1091B0008749886183480479407940EA042004B2F1
:1091C000204606F097FA8249C860C868814906F0CF
:1091D0005FF97F49C8607C488068E0BB7A480068D6
:1091E000B0F5807F3DD1774800797B49488075484C
:1091F0004079897840EA0120774948807148807831
:1092000008817048C078097A40EA012000B27249AA
:1092100008816C480078C8806A484078897940EABB
:1092200001206D49C8800846C08800EB80004FF6D9
:10923000FF7101EA40006849C8800846008964213E
:10924000484300B2644908810846408800EB80002A
:109250004FF6FF7100E004E001EA40005E494880FB
:10926000CAE05948806878BB5748006840F201114D
:1092700088422AD1534800795749087151484079AA
:10928000097940EA0120544908714E488078887273
:109290004C48C078897A40EA01204F498872494891
:1092A0000078088047484078097840EA01204A4918
:1092B00008800846008800EB80004FF6FF7101EA45
:1092C00040004549088097E0FFE73F48806820BBA1
:1092D0003D480068B0F5817F1FD13A4800793E498A
:1092E000C88238484079897D40EA01203A49C882DD
:1092F0003448807888823348C078897C40EA0120ED
:10930000354988822F48007848822E484078097D68
:1093100040EA0120304948826EE02B48806848B915
:1093200029480068B0F5827F04D1264800782A4990
:10933000087661E024488068F0BB2348006840F26A
:109340000511884258D11F480078234988811D485B
:109350004078097B40EA01201F49888119488078BC
:10936000C8811848C078897B40EA01201A49C88121
:1093700014480079088213484079097C40EA0120AA
:109380001549088208468089A0F6AB200A2190FB87
:10939000F1F0114988810846C089A0F6AB200A2166
:1093A00090FBF1F00C49C8810846008AA0F6AB207A
:1093B0000A2190FBF1F000E01EE0074908821BE063
:1093C00000640040D400002068170020F100002055
:1093D000C817002000002041AC170020074928686A
:1093E000884209D1064B074A00212846FFF72CFA8C
:1093F0000349044805F092F8BDE8F0810068004098
:10940000E40000206817002070477047704770B56F
:10941000044694F82000012822D1022084F820007C
:109420002068006820F001002168086000F0C6FE96
:1094300005460DE000F0C2FE401B0A2808D9606A0C
:1094400040F400306062052084F82000012070BDE7
:109450002068406800F001000028EBD16062F6E768
:10946000606A40F4002060620120F0E770B50446B5
:1094700094F82000022828D12068006840F00100FC
:109480002168086000F09AFE05460DE000F096FEA7
:10949000401B0A2808D9606A40F400306062052049
:1094A00084F82000012070BD2068406800F00100B1
:1094B0000028EBD02068006820F0020021680860D6
:1094C000012084F820000020EDE7606A40F480105D
:1094D00060620120E7E77047704770477047704748
:1094E000704770470146002291F82100022808D0F9
:1094F0000420886300BF002081F8200000BF012005
:1095000070470868006820F00E000B681860086853
:10951000006820F001000B68186091F840300120CD
:109520009840CB6B5860012081F8210000BF0020DB
:1095300081F8200000BF1046E2E7000070B5044645
:10954000002594F82100022803D00420A0630125FF
:10955000C1E02068006820F00E00216808602068E3
:10956000006820F00100216808605C49206888429A
:1095700052D95A4978392068884201D1012047E000
:10958000564964392068884201D1102040E053498F
:1095900050392068884201D1801539E04F493C3963
:1095A0002068884201D1801432E04C492839206873
:1095B000884202D14FF480302AE0484914392068AB
:1095C000884202D14FF4801022E04449206888424A
:1095D00001D140041CE042492068884201D10120A9
:1095E00016E03F4914312068884201D110200FE075
:1095F0003B4928312068884201D1801508E038496C
:109600003C312068884201D1801401E04FF4803061
:109610003349091F086051E0304978392068884291
:1096200001D1012047E02D4964392068884201D1E9
:10963000102040E0294950392068884201D1801526
:1096400039E026493C392068884201D1801432E053
:10965000224928392068884202D14FF480302AE01C
:109660001E4914392068884202D14FF4801022E04C
:109670001A492068884201D140041CE0184920683A
:10968000884201D1012016E0154914312068884232
:1096900001D110200FE0124928312068884201D101
:1096A000801508E00E493C312068884201D18014C1
:1096B00001E04FF48030094980394860012084F886
:1096C000210000BF002084F8200000BF606B10B1B3
:1096D0002046616B8847284670BD0000800002402C
:1096E00008040240014609B9012070470868006873
:1096F00020F001000A68106000200A6810600A6803
:1097000050600A6890600A68D060174A0868904202
:109710000BD2164A0868801A1422B0FBF2F08000BF
:10972000086412480838C8630AE00F4A0868801ABB
:109730001422B0FBF2F0800008640B480838C863BC
:1097400091F8402001209040CA6B50600020886250
:10975000C86208634863886381F8210000BF81F80C
:10976000200000BF00BFC0E708040240080002401C
:1097700070B50446E06B05682068066894F84010F0
:10978000042088402840002875D006F004000028F6
:10979000FAD02068006800F0200028B9206800682E
:1097A00020F0040021680860D5492068884254D917
:1097B000D34978392068884201D1042049E0D04952
:1097C00064392068884201D1402042E0CC495039B8
:1097D0002068884201D100153BE0C9493C39206826
:1097E000884202D14FF4804033E0C54928392068CF
:1097F000884202D14FF480202BE0C14914392068FF
:10980000884202D14FF4800023E0BD49206888429D
:1098100001D1C0041DE0BB492068884201D1042069
:1098200017E0B84914312068884201D1402010E087
:10983000B44928312068884201D1001509E0B149B6
:109840003C312068884202D14FF4804001E04FF45F
:109850008020AC49091F086054E0A9497839206884
:10986000884201D104204AE0A54964392068884231
:1098700002D1402043E04CE0A149503920688842A1
:1098800001D100153BE09E493C392068884202D155
:109890004FF4804033E09A4928392068884202D149
:1098A0004FF480202BE0964914392068884202D179
:1098B0004FF4800023E092492068884201D1C0041F
:1098C0001DE090492068884201D1042017E08D49AD
:1098D00014312068884201D1402010E089492831A4
:1098E0002068884201D1001509E086493C31206892
:1098F000884202D14FF4804001E04FF4802080493B
:1099000080394860E06A002802D02046E16A884732
:10991000F4E094F84010022088402840002871D0DC
:1099200006F002000028FAD02068006800F020004D
:1099300040B92068006820F00A0021680860012012
:1099400084F821006E492068884254D96C497839DE
:109950002068884201D1022049E0694964392068C1
:10996000884201D1202042E0654950392068884270
:1099700001D140153BE062493C392068884202D160
:109980004FF4005033E05E4928392068884202D104
:109990004FF400302BE05A4914392068884202D134
:1099A0004FF4001023E056492068884201D180041A
:1099B0001DE054492068884201D1022017E0514936
:1099C00014312068884201D1202010E04D4928310F
:1099D0002068884201D1401509E04A493C3120689D
:1099E000884202D14FF4005001E04FF40030454965
:1099F000091F086054E0424978392068884202D142
:109A000002204AE057E03E4964392068884201D18B
:109A1000202042E03A4950392068884201D140155F
:109A20003BE037493C392068884202D14FF400506E
:109A300033E0334928392068884202D14FF400309E
:109A40002BE02F4914392068884202D14FF40010CE
:109A500023E02B492068884201D180041DE0294978
:109A60002068884201D1022017E02649143120687D
:109A7000884201D1202010E0224928312068884204
:109A800001D1401509E01F493C312068884202D1CC
:109A90004FF4005001E04FF400301949803948601C
:109AA00000BF002084F8200000BFA06A30B3204629
:109AB000A16A884722E094F8401008208840284096
:109AC000E0B106F00800C8B12068006820F00E0080
:109AD0002168086094F8401001208840E16B4860DC
